{"abi":[{"type":"constructor","inputs":[{"name":"_tokenAddress","type":"address","internalType":"address"},{"name":"_dripInterval","type":"uint256","internalType":"uint256"},{"name":"_dripLimit","type":"uint256","internalType":"uint256"},{"name":"_owner","type":"address","internalType":"address"}],"stateMutability":"nonpayable"},{"type":"function","name":"deposit","inputs":[{"name":"_amount","type":"uint256","internalType":"uint256"}],"outputs":[],"stateMutability":"nonpayable"},{"type":"function","name":"drip","inputs":[{"name":"_amount","type":"uint256","internalType":"uint256"}],"outputs":[],"stateMutability":"nonpayable"},{"type":"function","name":"dripInterval","inputs":[],"outputs":[{"name":"","type":"uint256","internalType":"uint256"}],"stateMutability":"view"},{"type":"function","name":"dripLimit","inputs":[],"outputs":[{"name":"","type":"uint256","internalType":"uint256"}],"stateMutability":"view"},{"type":"function","name":"dripTimes","inputs":[{"name":"","type":"address","internalType":"address"}],"outputs":[{"name":"","type":"uint256","internalType":"uint256"}],"stateMutability":"view"},{"type":"function","name":"getDripInterval","inputs":[],"outputs":[{"name":"","type":"uint256","internalType":"uint256"}],"stateMutability":"view"},{"type":"function","name":"getDripLimit","inputs":[],"outputs":[{"name":"","type":"uint256","internalType":"uint256"}],"stateMutability":"view"},{"type":"function","name":"getDripTime","inputs":[{"name":"_user","type":"address","internalType":"address"}],"outputs":[{"name":"","type":"uint256","internalType":"uint256"}],"stateMutability":"view"},{"type":"function","name":"owner","inputs":[],"outputs":[{"name":"","type":"address","internalType":"address"}],"stateMutability":"view"},{"type":"function","name":"renounceOwnership","inputs":[],"outputs":[],"stateMutability":"nonpayable"},{"type":"function","name":"setDripInterval","inputs":[{"name":"_dripInterval","type":"uint256","internalType":"uint256"}],"outputs":[],"stateMutability":"nonpayable"},{"type":"function","name":"setDripLimit","inputs":[{"name":"_dripLimit","type":"uint256","internalType":"uint256"}],"outputs":[],"stateMutability":"nonpayable"},{"type":"function","name":"setTokenAddress","inputs":[{"name":"_tokenAddress","type":"address","internalType":"address"}],"outputs":[],"stateMutability":"nonpayable"},{"type":"function","name":"token","inputs":[],"outputs":[{"name":"","type":"address","internalType":"contract IERC20"}],"stateMutability":"view"},{"type":"function","name":"tokenAddress","inputs":[],"outputs":[{"name":"","type":"address","internalType":"address"}],"stateMutability":"view"},{"type":"function","name":"transferOwnership","inputs":[{"name":"newOwner","type":"address","internalType":"address"}],"outputs":[],"stateMutability":"nonpayable"},{"type":"event","name":"JUNFaucet__Drip","inputs":[{"name":"Receiver","type":"address","indexed":true,"internalType":"address"},{"name":"Amount","type":"uint256","indexed":true,"internalType":"uint256"}],"anonymous":false},{"type":"event","name":"JUNFaucet__OwnerDeposit","inputs":[{"name":"amount","type":"uint256","indexed":true,"internalType":"uint256"}],"anonymous":false},{"type":"event","name":"OwnershipTransferred","inputs":[{"name":"previousOwner","type":"address","indexed":true,"internalType":"address"},{"name":"newOwner","type":"address","indexed":true,"internalType":"address"}],"anonymous":false},{"type":"error","name":"JUNFaucet__ExceedLimit","inputs":[]},{"type":"error","name":"JUNFaucet__FaucetNotEnough","inputs":[]},{"type":"error","name":"JUNFaucet__IntervalHasNotPassed","inputs":[]},{"type":"error","name":"JUNFaucet__InvalidAmount","inputs":[]},{"type":"error","name":"OwnableInvalidOwner","inputs":[{"name":"owner","type":"address","internalType":"address"}]},{"type":"error","name":"OwnableUnauthorizedAccount","inputs":[{"name":"account","type":"address","internalType":"address"}]},{"type":"error","name":"SafeERC20FailedOperation","inputs":[{"name":"token","type":"address","internalType":"address"}]}],"bytecode":{"object":"0x60a060405234801561000f575f5ffd5b506040516111e33803806111e38339818101604052810190610031919061028f565b805f73ffffffffffffffffffffffffffffffffffffffff168173ffffffffffffffffffffffffffffffffffffffff16036100a2575f6040517f1e4fbdf70000000000000000000000000000000000000000000000000000000081526004016100999190610302565b60405180910390fd5b6100b18161013d60201b60201c565b508373ffffffffffffffffffffffffffffffffffffffff1660808173ffffffffffffffffffffffffffffffffffffffff168152505082600281905550816003819055508360015f6101000a81548173ffffffffffffffffffffffffffffffffffffffff021916908373ffffffffffffffffffffffffffffffffffffffff1602179055505050505061031b565b5f5f5f9054906101000a900473ffffffffffffffffffffffffffffffffffffffff169050815f5f6101000a81548173ffffffffffffffffffffffffffffffffffffffff021916908373ffffffffffffffffffffffffffffffffffffffff1602179055508173ffffffffffffffffffffffffffffffffffffffff168173ffffffffffffffffffffffffffffffffffffffff167f8be0079c531659141344cd1fd0a4f28419497f9722a3daafe3b4186f6b6457e060405160405180910390a35050565b5f5ffd5b5f73ffffffffffffffffffffffffffffffffffffffff82169050919050565b5f61022b82610202565b9050919050565b61023b81610221565b8114610245575f5ffd5b50565b5f8151905061025681610232565b92915050565b5f819050919050565b61026e8161025c565b8114610278575f5ffd5b50565b5f8151905061028981610265565b92915050565b5f5f5f5f608085870312156102a7576102a66101fe565b5b5f6102b487828801610248565b94505060206102c58782880161027b565b93505060406102d68782880161027b565b92505060606102e787828801610248565b91505092959194509250565b6102fc81610221565b82525050565b5f6020820190506103155f8301846102f3565b92915050565b608051610e9461034f5f395f818161042201528181610539015281816106db015281816107b101526108ab0152610e945ff3fe608060405234801561000f575f5ffd5b50600436106100fe575f3560e01c80638da5cb5b11610095578063b1c6d07b11610064578063b1c6d07b14610260578063b6b55f2514610290578063f2fde38b146102ac578063fc0c546a146102c8576100fe565b80638da5cb5b146101d85780639d76ea58146101f6578063a9a89db914610214578063b1a51ee914610230576100fe565b80634d4c7d11116100d15780634d4c7d111461017657806358326b7a146101945780636a214811146101b0578063715018a6146101ce576100fe565b8063079da0b31461010257806308b930aa1461012057806326a4e8d21461013e5780634bd74aa61461015a575b5f5ffd5b61010a6102e6565b6040516101179190610bd0565b60405180910390f35b6101286102ef565b6040516101359190610bd0565b60405180910390f35b61015860048036038101906101539190610c47565b6102f8565b005b610174600480360381019061016f9190610c9c565b610343565b005b61017e610355565b60405161018b9190610bd0565b60405180910390f35b6101ae60048036038101906101a99190610c9c565b61035b565b005b6101b86105c5565b6040516101c59190610bd0565b60405180910390f35b6101d66105cb565b005b6101e06105de565b6040516101ed9190610cd6565b60405180910390f35b6101fe610605565b60405161020b9190610cd6565b60405180910390f35b61022e60048036038101906102299190610c9c565b61062a565b005b61024a60048036038101906102459190610c47565b61063c565b6040516102579190610bd0565b60405180910390f35b61027a60048036038101906102759190610c47565b610651565b6040516102879190610bd0565b60405180910390f35b6102aa60048036038101906102a59190610c9c565b610697565b005b6102c660048036038101906102c19190610c47565b610825565b005b6102d06108a9565b6040516102dd9190610d4a565b60405180910390f35b5f600354905090565b5f600254905090565b6103006108cd565b8060015f6101000a81548173ffffffffffffffffffffffffffffffffffffffff021916908373ffffffffffffffffffffffffffffffffffffffff16021790555050565b61034b6108cd565b8060038190555050565b60035481565b5f81905060025460045f3373ffffffffffffffffffffffffffffffffffffffff1673ffffffffffffffffffffffffffffffffffffffff1681526020019081526020015f2054426103ab9190610d90565b10156103e3576040517fab1e7b0000000000000000000000000000000000000000000000000000000000815260040160405180910390fd5b60035481111561041f576040517f715d4e2e00000000000000000000000000000000000000000000000000000000815260040160405180910390fd5b807f000000000000000000000000000000000000000000000000000000000000000073ffffffffffffffffffffffffffffffffffffffff166370a08231306040518263ffffffff1660e01b81526004016104799190610cd6565b602060405180830381865afa158015610494573d5f5f3e3d5ffd5b505050506040513d601f19601f820116820180604052508101906104b89190610dd7565b10156104f0576040517f3a291ff300000000000000000000000000000000000000000000000000000000815260040160405180910390fd5b4260045f3373ffffffffffffffffffffffffffffffffffffffff1673ffffffffffffffffffffffffffffffffffffffff1681526020019081526020015f208190555061057d33827f000000000000000000000000000000000000000000000000000000000000000073ffffffffffffffffffffffffffffffffffffffff166109549092919063ffffffff16565b803373ffffffffffffffffffffffffffffffffffffffff167f18ffc1e4f59ee2e0cef1beefd8bd725c5d8e706136f7f5d251d394102a1a631160405160405180910390a35050565b60025481565b6105d36108cd565b6105dc5f6109d3565b565b5f5f5f9054906101000a900473ffffffffffffffffffffffffffffffffffffffff16905090565b60015f9054906101000a900473ffffffffffffffffffffffffffffffffffffffff1681565b6106326108cd565b8060028190555050565b6004602052805f5260405f205f915090505481565b5f60045f8373ffffffffffffffffffffffffffffffffffffffff1673ffffffffffffffffffffffffffffffffffffffff1681526020019081526020015f20549050919050565b61069f6108cd565b5f81116106d8576040517f597ac90800000000000000000000000000000000000000000000000000000000815260040160405180910390fd5b807f000000000000000000000000000000000000000000000000000000000000000073ffffffffffffffffffffffffffffffffffffffff166370a08231336040518263ffffffff1660e01b81526004016107329190610cd6565b602060405180830381865afa15801561074d573d5f5f3e3d5ffd5b505050506040513d601f19601f820116820180604052508101906107719190610dd7565b10156107a9576040517f597ac90800000000000000000000000000000000000000000000000000000000815260040160405180910390fd5b6107f63330837f000000000000000000000000000000000000000000000000000000000000000073ffffffffffffffffffffffffffffffffffffffff16610a94909392919063ffffffff16565b807e135f4c50616ccee2e7926257a9efa26606a8e006c26ac1eed690e80297788960405160405180910390a250565b61082d6108cd565b5f73ffffffffffffffffffffffffffffffffffffffff168173ffffffffffffffffffffffffffffffffffffffff160361089d575f6040517f1e4fbdf70000000000000000000000000000000000000000000000000000000081526004016108949190610cd6565b60405180910390fd5b6108a6816109d3565b50565b7f000000000000000000000000000000000000000000000000000000000000000081565b6108d5610b16565b73ffffffffffffffffffffffffffffffffffffffff166108f36105de565b73ffffffffffffffffffffffffffffffffffffffff161461095257610916610b16565b6040517f118cdaa70000000000000000000000000000000000000000000000000000000081526004016109499190610cd6565b60405180910390fd5b565b6109ce838473ffffffffffffffffffffffffffffffffffffffff1663a9059cbb8585604051602401610987929190610e02565b604051602081830303815290604052915060e01b6020820180517bffffffffffffffffffffffffffffffffffffffffffffffffffffffff8381831617835250505050610b1d565b505050565b5f5f5f9054906101000a900473ffffffffffffffffffffffffffffffffffffffff169050815f5f6101000a81548173ffffffffffffffffffffffffffffffffffffffff021916908373ffffffffffffffffffffffffffffffffffffffff1602179055508173ffffffffffffffffffffffffffffffffffffffff168173ffffffffffffffffffffffffffffffffffffffff167f8be0079c531659141344cd1fd0a4f28419497f9722a3daafe3b4186f6b6457e060405160405180910390a35050565b610b10848573ffffffffffffffffffffffffffffffffffffffff166323b872dd868686604051602401610ac993929190610e29565b604051602081830303815290604052915060e01b6020820180517bffffffffffffffffffffffffffffffffffffffffffffffffffffffff8381831617835250505050610b1d565b50505050565b5f33905090565b5f5f60205f8451602086015f885af180610b3c576040513d5f823e3d81fd5b3d92505f519150505f8214610b55576001811415610b70565b5f8473ffffffffffffffffffffffffffffffffffffffff163b145b15610bb257836040517f5274afe7000000000000000000000000000000000000000000000000000000008152600401610ba99190610cd6565b60405180910390fd5b50505050565b5f819050919050565b610bca81610bb8565b82525050565b5f602082019050610be35f830184610bc1565b92915050565b5f5ffd5b5f73ffffffffffffffffffffffffffffffffffffffff82169050919050565b5f610c1682610bed565b9050919050565b610c2681610c0c565b8114610c30575f5ffd5b50565b5f81359050610c4181610c1d565b92915050565b5f60208284031215610c5c57610c5b610be9565b5b5f610c6984828501610c33565b91505092915050565b610c7b81610bb8565b8114610c85575f5ffd5b50565b5f81359050610c9681610c72565b92915050565b5f60208284031215610cb157610cb0610be9565b5b5f610cbe84828501610c88565b91505092915050565b610cd081610c0c565b82525050565b5f602082019050610ce95f830184610cc7565b92915050565b5f819050919050565b5f610d12610d0d610d0884610bed565b610cef565b610bed565b9050919050565b5f610d2382610cf8565b9050919050565b5f610d3482610d19565b9050919050565b610d4481610d2a565b82525050565b5f602082019050610d5d5f830184610d3b565b92915050565b7f4e487b71000000000000000000000000000000000000000000000000000000005f52601160045260245ffd5b5f610d9a82610bb8565b9150610da583610bb8565b9250828203905081811115610dbd57610dbc610d63565b5b92915050565b5f81519050610dd181610c72565b92915050565b5f60208284031215610dec57610deb610be9565b5b5f610df984828501610dc3565b91505092915050565b5f604082019050610e155f830185610cc7565b610e226020830184610bc1565b9392505050565b5f606082019050610e3c5f830186610cc7565b610e496020830185610cc7565b610e566040830184610bc1565b94935050505056fea264697066735822122007bbae69c865aeb5057cc37e0f7cc04de256d7be9bc11c584cc9041a607f529864736f6c634300081c0033","linkReferences":{}},"methodIdentifiers":{"deposit(uint256)":"b6b55f25","drip(uint256)":"58326b7a","dripInterval()":"6a214811","dripLimit()":"4d4c7d11","dripTimes(address)":"b1a51ee9","getDripInterval()":"08b930aa","getDripLimit()":"079da0b3","getDripTime(address)":"b1c6d07b","owner()":"8da5cb5b","renounceOwnership()":"715018a6","setDripInterval(uint256)":"a9a89db9","setDripLimit(uint256)":"4bd74aa6","setTokenAddress(address)":"26a4e8d2","token()":"fc0c546a","tokenAddress()":"9d76ea58","transferOwnership(address)":"f2fde38b"},"id":29}